:100000000C9438010C9469010C9469010C946901F9
:100010000C9469010C9469010C9469010C946901B8
:100020000C9469010C9469010C9469010C946901A8
:100030000C9469010C9469010C9469010C94690198
:100040000C9469010C9469010C9469010C94690188
:100050000C9469010C9469010C9469010C94CC0511
:100060000C9469010C9496050C946C050C94690130
:100070000C9469010C9469010C9469010C94690158
:100080000C9469010C9469010C9469010C94690148
:100090000C9469010C9469010C9469010C94690138
:1000A0000C9469010C9469010C9469010C94690128
:1000B0000C9469010C9469010C9469010C94690118
:1000C0000C9469010C9469010C9469010C94690108
:1000D0000C9469010C9469010C9469010C946901F8
:1000E0000C9469010C9407030C944B030C942603A5
:1000F0000C944F030C94F3010C941E030C942203F4
:100100000C942A030C942D030C948E080C94160660
:100110000C94DF010C9445030C943D030C943303C1
:100120000C940C030C9486020C9401020C94410371
:100130000C94A3010C9439020C94D0010C94530339
:100140000C945D030C9459030C94370300002100B8
:10015000240027002A002D00300033000101000098
:10016000040107010A0100002200250028002B00DD
:100170002E003100340002010000050108010B01CE
:1001800000000A0B02090C0D0E0807030401000011
:10019000000000000000000000000000000000005F
:1001A000000000000000000000000000121110001C
:1001B000000000000000000000000000000000003F
:1001C000000000000000000020002300260029009D
:1001D0002C002F003200000100000301060109017C
:1001E00005050505070508080808020202020A0AB3
:1001F00008080404040401010101010101010303D1
:10020000030303030303040707070C0C0C0C0C0C7B
:100210000C0C0202020206060606060606060B0B78
:100220000B0B0B0B0B0B01021020200808102040B9
:1002300010204080020102010804020101020408AA
:100240001020408080402010080402018004020138
:100250008040201008040201080402010102040881
:1002600010204080010204081020408016068E08ED
:1002700011241FBECFEFD1E2DEBFCDBF00E00CBF27
:1002800022E0AEE1B2E001C01D92A13EB207E1F76B
:1002900012E0A0E0B2E0EEE0F9E100E00BBF02C046
:1002A00007900D92AE31B107D9F711E0C7E3D1E065
:1002B00000E006C021970109802FFE010E94570A25
:1002C000C633D10780E00807A9F70E94BA060C944C
:1002D000750C0C940000CF92DF92EF92FF92CF93B7
:1002E000DF93B091CB02A0E08111AB2F8091CC02C3
:1002F00090E0880F991FAC014A535E4FC090D10225
:10030000D090D202E090D302F090D40230E020E00E
:10031000FA01C591D491E881B90190E080E0EB2326
:10032000EA130AC02F5F3F4F6C157D058E059F05B0
:1003300078F36FEF7FEFCB01DF91CF91FF90EF90DC
:10034000DF90CF900895AF92BF92CF92DF92EF925D
:10035000FF920F931F93CF93DF936C017B018B016F
:10036000040F151FEB015E01AE18BF08C017D107BF
:1003700059F06991D601ED91FC910190F081E02D49
:10038000C6011995892B79F7C501DF91CF911F918E
:100390000F91FF90EF90DF90CF90BF90AF900895B6
:1003A000FC01538D448D252F30E0842F90E0821B7B
:1003B000930B541710F0CF96089501970895FC0100
:1003C000918D828D981761F0A28DAE0FBF2FB11D58
:1003D0005D968C91928D9F5F9F73928F90E00895B0
:1003E0008FEF9FEF0895FC01918D828D981731F06A
:1003F000828DE80FF11D858D90E008958FEF9FEFBE
:100400000895FC01918D228D892F90E0805C9F4F93
:10041000821B91098F739927089587E292E00E94C9
:10042000010221E0892B09F420E0822F0895FC01CC
:10043000A48DA80FB92FB11DA35ABF4F2C91848D45
:1004400090E001968F739927848FA689B7892C93A2
:10045000A089B1898C91837080648C93938D848DF5
:10046000981306C00288F389E02D80818F7D8083F8
:100470000895EF92FF920F931F93CF93DF93EC01B8
:1004800081E0888F9B8D8C8D98131AC0E889F9893B
:10049000808185FF15C09FB7F894EE89FF8960833E
:1004A000E889F98980818370806480839FBF81E0BF
:1004B00090E0DF91CF911F910F91FF90EF90089501
:1004C000F62E0B8D10E00F5F1F4F0F731127E02EDC
:1004D0008C8D8E110CC00FB607FCFACFE889F98914
:1004E000808185FFF5CFCE010E941702F1CFEB8D01
:1004F000EC0FFD2FF11DE35AFF4FF0829FB7F894E8
:100500000B8FEA89FB8980818062CFCFCF93DF9305
:10051000EC01888D8823B9F0AA89BB89E889F9891B
:100520008C9185FD03C0808186FD0DC00FB607FC50
:10053000F7CF8C9185FFF2CF808185FFEDCFCE0183
:100540000E941702E9CFDF91CF91089580E090E0FB
:10055000892B29F00E940D0281110E94000080E089
:1005600090E0892B49F080E090E0892B29F00E94EF
:10057000000081110E94000080E090E0892B49F08A
:1005800080E090E0892B29F00E94000081110E94F8
:10059000000080E090E0892B49F080E090E0892B1A
:1005A00029F00E94000081110C9400000895282F6A
:1005B00030E0F901E058FE4F9491F901EA5DFD4FFA
:1005C000449120523E4FF9012491222309F435C071
:1005D000992311F191509231F8F4E92FF0E0882736
:1005E000EB50FD4F8F4F0C94570A26032A03070345
:1005F0001E0322030C032D03330337033D03410382
:1006000045034B034F030C03530359035D038091D0
:1006100080008F7780938000E22FF0E0EE0FFF1FC5
:10062000EA59FE4FA591B4918FB7F894EC916111FE
:1006300048C040954E234C938FBF08958091800011
:100640008F7DE8CF80918000877FE4CF84B58F775E
:1006500084BDE2CF84B58F7DFBCF8091B0008F77D2
:100660008093B000D9CF8091B0008F7DF9CF809179
:1006700090008F7780939000CFCF809190008F7DF6
:10068000F9CF80919000877FF5CF8091A0008F7780
:100690008093A000C1CF8091A0008F7DF9CF809181
:1006A000A000877FF5CF809120018F778093200174
:1006B000B3CF809120018F7DF9CF80912001877F7A
:1006C000F5CF4E2BB8CFCF93DF9390E0FC01EA5DDE
:1006D000FD4F249180529E4FFC0184918823D1F0DC
:1006E00090E0880F991FFC01E45BFE4FA591B49147
:1006F000FC01EA59FE4FC591D491623071F49FB765
:10070000F8943C91822F809583238C93E8812E2B43
:1007100028839FBFDF91CF9108958FB7F894EC9114
:100720002E2B2C938FBFF6CF3FB7F89480911F02EA
:1007300090912002A0912102B091220226B5A89B9F
:1007400005C02F3F19F00196A11DB11D3FBFBA2F63
:10075000A92F982F8827BC01CD01620F711D811D23
:10076000911D42E0660F771F881F991F4A95D1F7A8
:1007700008958F929F92AF92BF92CF92DF92EF92A5
:10078000FF924B015C010E9494036B017C010E946B
:1007900094036C197D098E099F09683E7340810599
:1007A0009105A8F321E0821A9108A108B10888EE0A
:1007B000C80E83E0D81EE11CF11C81149104A10431
:1007C000B10429F7FF90EF90DF90CF90BF90AF90EA
:1007D0009F908F900895CF92DF92EF92FF920F93A8
:1007E0001F93CF93DF93CDB7DEB7C054D1400FB680
:1007F000F894DEBF0FBECDBF2FB7F89480912302CF
:1008000090912402A0912502B09126022FBF409121
:10081000CD025091CE026091CF027091D0028C0136
:100820009D01041B150B260B370BB901A801403D98
:1008300057406105710590F48091D502C05CDE4F90
:100840000FB6F894DEBF0FBECDBFDF91CF911F91E1
:100850000F91FF90EF90DF90CF9008958093CD029D
:100860009093CE02A093CF02B093D0021092C80210
:100870001092C7021092C6021092C5021092C402D2
:1008800062E08091C9020E94630361E070E080E051
:1008900090E00E94B90361E08091C9020E94630365
:1008A00060E08091C9020E94D7028091CA028551FE
:1008B000823020F58BE291E10197F1F762E08091BF
:1008C000C9020E9463038091D60290E082309105B4
:1008D00038F0880F991F880F991F05970197F1F736
:1008E000F89480E00E946B016F3F7F4F8F4F9F4FC6
:1008F00061F41092D502789480E0A0CF64E170E0BA
:1009000080E090E00E94B903D9CF81E00E946B01A2
:100910006F3F7F4F8F4F9F4F61F38E010F5F1F4FD0
:100920006E018FEBC81A8EEFD80A780180E00E9422
:100930006B01F701608371838283938381E00E945E
:100940006B01F7016483758386839783F8E0EF0E6C
:10095000F11CEC14FD0451F7789430E020E0F8012C
:10096000C080D180E280F3804481558166817781A7
:10097000FFEFCF16DF06EF06FF0631F04F3F8FEF98
:1009800058076807780719F41092D502B5CFF90116
:1009900083E0F595E7958A95E1F7EC53FD4F80816B
:1009A000880FC416D506E606F70610F180832F5F80
:1009B0003F4F085F1F4F2832310589F64091C8022A
:1009C0002091C4028091C502280F3327331F8091E4
:1009D000C602280F311D8091C702820F932F911DEF
:1009E00099274817190681F681E08093D50226CF12
:1009F0008160DCCFFC0101900020E9F73197AF0165
:100A0000481B590BBC0187E292E00C94A3018F9222
:100A10009F92AF92BF920F931F93CF93DF93CDB767
:100A2000DEB7A1970FB6F894DEBF0FBECDBF19A2F7
:100A3000423008F44AE08E010F5D1F4F842E912C46
:100A4000B12CA12CA50194010E94350AE62FB90111
:100A5000CA01EA30F4F4E05DD801EE938D01232B56
:100A6000242B252B79F790E080E0109719F0CD0129
:100A70000E94FA04A1960FB6F894DEBF0FBECDBF58
:100A8000DF91CF911F910F91BF90AF909F908F906A
:100A90000895E95CE1CFCF92DF92EF92FF92CF937E
:100AA000DF936B017C016DE287E292E00E943902E4
:100AB000EC0166277727CB016C197D098E099F0908
:100AC0004AE00E9407058C0F9D1FDF91CF91FF9098
:100AD000EF90DF90CF9008951F920F920FB60F9274
:100AE00011240BB60F922F933F934F935F936F9305
:100AF0007F938F939F93AF93BF93EF93FF9387E27F
:100B000092E00E941702FF91EF91BF91AF919F91E8
:100B10008F917F916F915F914F913F912F910F90A6
:100B20000BBE0F900FBE0F901F9018951F920F9243
:100B30000FB60F9211240BB60F922F938F939F93A2
:100B4000EF93FF93E0913702F09138028081E091BA
:100B50003D02F0913E0282FD1DC0908180914002D5
:100B60008F5F8F7320914102821741F0E091400224
:100B7000F0E0E95DFD4F958F80934002FF91EF918A
:100B80009F918F912F910F900BBE0F900FBE0F90E2
:100B90001F9018958081F2CF1F920F920FB60F927F
:100BA00011242F933F938F939F93AF93BF93809183
:100BB000230290912402A0912502B0912602309147
:100BC0001E0223E0230F2D3758F50196A11DB11DFC
:100BD00020931E028093230290932402A093250267
:100BE000B093260280911F0290912002A0912102D1
:100BF000B09122020196A11DB11D80931F02909316
:100C00002002A0932102B0932202BF91AF919F9145
:100C10008F913F912F910F900FBE0F901F901895BD
:100C200026E8230F0296A11DB11DD2CF10922A02F1
:100C30001092290288EE93E0A0E0B0E080932B02AE
:100C400090932C02A0932D02B0932E028AE092E0A2
:100C5000909328028093270285EC90E090933402D1
:100C60008093330284EC90E09093360280933502B7
:100C700080EC90E0909338028093370281EC90E012
:100C800090933A028093390282EC90E090933C0278
:100C900080933B0286EC90E090933E0280933D026D
:100CA00010924002109241021092420210924302AE
:100CB0001092D8021092D7021092DA021092D90242
:100CC0001092DC021092DB0261E070E090E080E0C4
:100CD0000E94840B0097E9F09093D8028093D7028A
:100CE0001092DA021092D9022091DB023091DC02DC
:100CF000232B11F4FC0110821092DC021092DB0213
:100D00006CE172E08091D7029091D8020E946E0C43
:100D100014C08091D7029091D802009711F00E94E0
:100D2000FB0A1092D8021092D7021092DC021092A5
:100D3000DB021092DA021092D90285E38093C90295
:100D40008BE08093CA02EBE5F2E0E491E093CB0202
:100D5000E5E1F2E0E491E093CC0280E89EE3A0E0DC
:100D6000B0E08093D1029093D202A093D302B093CB
:100D7000D4020895789484B5826084BD84B581607E
:100D800084BD85B5826085BD85B5816085BD809156
:100D90006E00816080936E001092810080918100CE
:100DA00082608093810080918100816080938100C6
:100DB000809180008160809380008091B100846088
:100DC0008093B1008091B00081608093B0008091E9
:100DD0009100826080939100809191008160809366
:100DE0009100809190008160809390008091A1009B
:100DF00082608093A1008091A10081608093A10016
:100E00008091A00081608093A00080912101826088
:100E10008093210180912101816080932101809143
:100E2000200181608093200180917A00846080930A
:100E30007A0080917A00826080937A0080917A00B3
:100E4000816080937A0080917A00806880937A0034
:100E50001092C100E0913702F091380282E0808365
:100E6000E0913302F09134021082E0913502F0916A
:100E700036028FEC808310923F02E0913B02F091AA
:100E80003C0286E08083E0913902F0913A02808151
:100E900080618083E0913902F0913A02808188601C
:100EA0008083E0913902F0913A02808180688083EA
:100EB000E0913902F0913A0280818F7D808361E078
:100EC0008EE10E94630360E08EE10E94D70261E040
:100ED00086E10E94630361E087E10E94630362E0B0
:100EE0008091C9020E9463032FB7F8948091230276
:100EF00090912402A0912502B09126022FBF805D1F
:100F00009740A109B1098093CD029093CE02A0939E
:100F1000CF02B093D00287E38093D6020E94EB0306
:100F2000882341F08091CA028C3009F460C038F403
:100F30008B30F1F060E070E080EC9FE741C08551BC
:100F40008230C0F7C091C6026C2F70E0762F662702
:100F500066277F778091C702682B90E080E00E942F
:100F600097082DEC3CEC4CEC5DE30E94D4085BC090
:100F70006091C60270E090E080E00E9497086B01EB
:100F80007C01C091C702C7FF0AC0AC019B0160E0B1
:100F900070E080E89FEB0E9492096B017C01CF70AA
:100FA0006C2F70E090E080E00E9499082DEC3CEC02
:100FB0004CEC5DE30E94D408A70196010E949309BE
:100FC0000E94FF094B018B010E94EB03882351F023
:100FD0008091CA028B3030F08D3048F185518230DB
:100FE00008F482C060E070E080EC9FE73CC0C091F4
:100FF000C6026C2F70E090E080E00E9497086B01C1
:101000007C016091C7026F7070E090E080E00E9408
:1010100099082DEC3CEC4CEC5DE30E94D408A70150
:1010200096010E949309C7FFCBCF9058C9CF60911A
:10103000C50270E090E080E00E9499082DEC3CEC45
:101040004CEC5DE30E94D4086B017C016091C4020A
:1010500070E090E080E00E9499089B01AC01C7011C
:10106000B6010E9493090E94FF096B01EB0164EF36
:1010700071E080E090E00E94B903B401990C880B04
:10108000990B97FF43C00E944B0588E192E00E94B4
:10109000FA04B601DD0C880B990B97FF3BC00E9448
:1010A0004B058AE192E00E94FA0461E00A301105E2
:1010B00024F00E30110524F060E08EE10E94D7028A
:1010C00061E0CE34D10524F4C434D10524F460E0C9
:1010D00087E10E94D70268E873E180E090E00E9417
:1010E000B9030E94A6021ACF6091C4027091C50292
:1010F00076276727762790E080E00E9497082DECFE
:101100003CEC4CEC5DE30E94D408ADCF4AE00E9479
:101110000705BBCF4AE00E940705C3CF8091D702E5
:101120009091D802009711F00C94FB0A0895E8946E
:1011300009C097FB3EF490958095709561957F4F1F
:101140008F4F9F4F9923A9F0F92F96E9BB279395CD
:10115000F695879577956795B795F111F8CFFAF4DD
:10116000BB0F11F460FF1BC06F5F7F4F8F4F9F4F0E
:1011700016C0882311F096E911C0772321F09EE86C
:10118000872F762F05C0662371F096E8862F70E0D2
:1011900060E02AF09A95660F771F881FDAF7880FAC
:1011A0009695879597F908950E94E7080C94580939
:1011B0000E944A0938F00E94510920F0952311F04D
:1011C0000C9441090C94470911240C948C090E9439
:1011D000690970F3959FC1F3950F50E0551F629F09
:1011E000F001729FBB27F00DB11D639FAA27F00D80
:1011F000B11DAA1F649F6627B00DA11D661F829FA7
:101200002227B00DA11D621F739FB00DA11D621F8B
:10121000839FA00D611D221F749F3327A00D611DA8
:10122000231F849F600D211D822F762F6A2F11248A
:101230009F5750409AF0F1F088234AF0EE0FFF1FBD
:10124000BB1F661F771F881F91505040A9F79E3F14
:10125000510580F00C9441090C948C095F3FE4F334
:10126000983ED4F3869577956795B795F795E7956A
:101270009F5FC1F7FE2B880F911D9695879597F973
:10128000089597F99F6780E870E060E008959FEF08
:1012900080EC089500240A9416161706180609060D
:1012A000089500240A9412161306140605060895DC
:1012B000092E0394000C11F4882352F0BB0F40F464
:1012C000BF2B11F460FF04C06F5F7F4F8F4F9F4FA4
:1012D000089557FD9058440F551F59F05F3F71F026
:1012E0004795880F97FB991F61F09F3F79F087958D
:1012F0000895121613061406551FF2CF4695F1DF16
:1013000008C0161617061806991FF1CF86957105A5
:10131000610508940895E894BB2766277727CB01D9
:1013200097F908955058BB27AA270E94AA090C9440
:1013300058090E944A0938F00E94510920F039F4F6
:101340009F3F19F426F40C9447090EF4E095E7FB4F
:101350000C944109E92F0E94690958F3BA176207F2
:1013600073078407950720F079F4A6F50C948B0990
:101370000EF4E0950B2EBA2FA02D0B01B9019001B0
:101380000C01CA01A0011124FF27591B99F0593FF4
:1013900050F4503E68F11A16F040A22F232F342F3C
:1013A0004427585FF3CF469537952795A795F0408A
:1013B0005395C9F77EF41F16BA0B620B730B840B9F
:1013C000BAF09150A1F0FF0FBB1F661F771F881F57
:1013D000C2F70EC0BA0F621F731F841F48F48795AF
:1013E00077956795B795F7959E3F08F0B0CF9395A1
:1013F000880F08F09927EE0F9795879508950E941A
:10140000060A6894B1110C948C0908950E94710920
:1014100088F09F5798F0B92F9927B751B0F0E1F0B5
:10142000660F771F881F991F1AF0BA95C9F714C065
:10143000B13091F00E948B09B1E008950C948B09B2
:10144000672F782F8827B85F39F0B93FCCF386959E
:1014500077956795B395D9F73EF4909580957095FB
:1014600061957F4F8F4F9F4F0895A1E21A2EAA1BBF
:10147000BB1BFD010DC0AA1FBB1FEE1FFF1FA21744
:10148000B307E407F50720F0A21BB30BE40BF50B41
:10149000661F771F881F991F1A9469F760957095CA
:1014A000809590959B01AC01BD01CF010895EE0F91
:1014B000FF1F881F8BBF0790F691E02D19940F93A3
:1014C0001F93CF93DF938230910510F482E090E078
:1014D000E091DF02F091E00230E020E0B0E0A0E037
:1014E000309799F42115310509F44AC0281B390BAE
:1014F00024303105D8F58A819B816115710589F108
:10150000FB0193838283FE0111C0408151810281DE
:10151000138148175907E0F04817590799F41097B5
:1015200061F012960C93129713961C933296CF018A
:10153000DF91CF911F910F9108950093DF021093D7
:10154000E002F4CF2115310551F04217530738F06E
:10155000A901DB019A01BD01DF01F801C1CFEF0153
:10156000F9CF9093E0028093DF02CDCFFE01E20F2E
:10157000F31F819391932250310939832883D7CF68
:101580002091DD023091DE02232B41F420910202F2
:10159000309103023093DE022093DD02209100029D
:1015A000309101022115310541F42DB73EB740912C
:1015B000040250910502241B350BE091DD02F091ED
:1015C000DE02E217F307A0F42E1B3F0B28173907A2
:1015D00078F0AC014E5F5F4F2417350748F04E0F8F
:1015E0005F1F5093DE024093DD02819391939FCF62
:1015F000F0E0E0E09CCFCF93DF930097E9F0FC01AF
:10160000329713821282A091DF02B091E002ED01C5
:1016100030E020E01097A1F420813181820F931FE8
:101620002091DD023091DE022817390709F061C0F0
:10163000F093DE02E093DD02DF91CF910895EA019D
:10164000CE17DF07E8F54A815B819E014115510500
:10165000B1F7E901FB83EA8349915991C40FD51F82
:10166000EC17FD0761F4808191810296840F951F2C
:10167000E90199838883828193819B838A83F0E047
:10168000E0E012968D919C9113970097B9F52D91FA
:101690003C911197CD010296820F931F2091DD029C
:1016A0003091DE022817390739F6309751F510923C
:1016B000E0021092DF02B093DE02A093DD02BCCF05
:1016C000D383C28340815181840F951FC817D907E6
:1016D00061F44E5F5F4F88819981480F591F518394
:1016E00040838A819B81938382832115310509F090
:1016F000B0CFF093E002E093DF029ECFFD01DC016A
:10170000C0CF13821282D7CF4F925F926F927F9297
:101710008F929F92AF92BF92CF92DF92EF92FF9201
:101720000F931F93CF93DF938C01009799F4CB0114
:10173000DF91CF911F910F91FF90EF90DF90CF90AD
:10174000BF90AF909F908F907F906F905F904F90E1
:101750000C945F0AFC01E60FF71F9C01225031092F
:10176000E217F30708F4AEC0D901CD91DC911197CF
:10177000C617D70720F1C530D10578F0CE01049700
:101780008617970750F0C61BD70B2297C193D193AA
:101790006D937C93CF010E94FB0AC801DF91CF912A
:1017A0001F910F91FF90EF90DF90CF90BF90AF907F
:1017B0009F908F907F906F905F904F9008955B0106
:1017C000AC1ABD0A4C018C0E9D1EA091DF02B09197
:1017D000E002512C412CF12CE12C109731F5809135
:1017E000DD029091DE028815990509F05CC046166D
:1017F000570608F058C080910002909101020097AE
:1018000041F48DB79EB74091040250910502841BAC
:10181000950BE817F90708F055C0F093DE02E09346
:10182000DD02F90171836083B8CF8D919C9111978E
:1018300012966C90129713967C901397A815B90581
:1018400059F56C0142E0C40ED11CCA14DB0420F12E
:10185000AC014A195B09DA011296159780F0628291
:10186000738251834083D9016D937C93E114F10419
:1018700071F0D7011396FC93EE9312978ECF2296B8
:101880008C0F9D1FF90191838083F301EFCFF093BB
:10189000E002E093DF0281CF4816590608F42C01DC
:1018A0007D01D3019ACFCB010E945F0A7C01009792
:1018B00049F0AE01B8010E94650CC8010E94FB0A04
:1018C00087016BCF10E000E068CFFB01DC0102C0B4
:1018D00001900D9241505040D8F70895FB01DC0172
:1018E00001900D920020E1F7089511E0C7E3D1E0E7
:1018F00000E006C0802FFE010E94570A2196011DBC
:0E190000C833D10780E00807A9F7F894FFCF9D
:10190E000000E1028000000000003902A301D001B6
:0E191E0086020102DF01F3012C000D0A000019
:00000001FF
